:020000040001F9
:10800000B02C0020B5DC0100CFDC0100D1DC010088
:108010000000000000000000000000000000000060
:10802000000000000000000000000000D3DC0100A0
:108030000000000000000000D5DC0100D7DC0100DA
:10804000D9DC0100D9DC0100C1C00100D9DC01008C
:10805000D9DC0100000000000F8F010051890100F0
:10806000D9DC01008DAD0100CFAD0100D9DC0100EC
:10807000D9DC0100D9DC0100D9DC0100D9DC010028
:10808000CBB60100DB8C0100D9DC0100D9DC01009A
:10809000D9DC0100D9DC0100CBEC0100D9DC010006
:1080A000D9DC0100D9DC0100000000000000000064
:1080B00000000000000000000000000000000000C0
:1080C00000F002F800F03EF80CA030C80838241880
:1080D0002D18A246671EAB4654465D46AC4201D100
:1080E00000F030F87E460F3E0FCCB64601263342F4
:1080F00000D0FB1AA246AB46334318475471000028
:1081000074710000103A02D378C878C1FAD85207C7
:1081100001D330C830C101D504680C60704700003D
:108120000023002400250026103A01D378C1FBD893
:10813000520700D330C100D50B6070471FB51FBD7B
:1081400010B510BD06F096FF1146FFF7F7FF00F0DF
:108150008FFB06F0AEFF03B4FFF7F2FF03BC06F09F
:10816000B3FF0000401E00BF00BF00BF00BF00BF44
:1081700000BF00BF00BF00BF00BF00BF00BFF1D104
:1081800070470000401E00BF00BF00BF00BF00BF1F
:1081900000BF00BF00BF00BF00BF00BF00BFF1D1E4
:1081A0007047000070B505460C46164602E00FCC3D
:1081B0000FC5103E102EFAD2082E02D303CC03C5F1
:1081C000083E042E07D301CC01C5361F03E02178F9
:1081D0002970641C6D1C761EF9D270BD70B5054601
:1081E0000C46102C00DD10242246F849284606F0E3
:1081F000E3FD70BD642005F0F9FD00BF00BF00BFC6
:1082000000BF00BFBFF34F8F00BF00BF00BFF048EB
:10821000F049C86000BF00BF00BFBFF34F8F00BF71
:1082200000BF00BF00E000BFFDE770B58EB005469F
:10823000E948056000BF08A8007D01090901491C43
:108240000D9108A8007DF021884310300D9000BFEB
:10825000E148006806F08EFD86B23246DE480168CD
:108260000DA87CDF044600BF2646002E05D000BFC7
:10827000002211463046FFF7BDFF00BF302101A8A4
:1082800006F002FE04216846C1710221017101213C
:1082900081828170D149018069460691002101A83F
:1082A00003F012FE044600BF2646002E05D000BF94
:1082B000002211463046FFF79DFF00BF0EB070BD93
:1082C00004460D462A462146C548FFF793FF7CB574
:1082D000002078DF044600BF2546002D05D000BFF2
:1082E000002211462846FFF785FF00BF00200090BE
:1082F0000190182168460180302141800021818051
:10830000FF219131C1807ADF044600BF2546002D50
:1083100005D000BF002211462846FFF76BFF00BFC3
:108320007CBD10B51821AF4806F0AEFD0020AD4968
:10833000087048600872C82008820020488210BD7A
:1083400070B505460C462068007880280CDAA648EF
:10835000006800280ED02668B21C71783078A24ED2
:108360003668B369984705E023689A1C59781878ED
:1083700001F00EFC70BD38B5002000909B480090C5
:1083800069469B4801F083F8044600BF2546002D4E
:1083900005D000BF002211462846FFF72BFF00BF83
:1083A00038BDF8B506460F46144600BF2546002DD9
:1083B00005D000BF002211462846FFF71BFF00BF73
:1083C0000020F8BD7FB506F041F8044600BF254601
:1083D000002D05D000BF002211462846FFF70AFFF6
:1083E00000BF0020039003A804F00AFB044600BF6E
:1083F0002546002D05D000BF002211462846FFF774
:10840000F9FE00BF052101A8013006F03BFD6846DA
:10841000407941084900491C684641714079022170
:10842000884301466846417140791C2188430146D2
:108430000C316846417140792021884301466846E5
:108440004171072181711021C1716A480090012199
:10845000684601716946684804F045FB044600BF60
:108460002546002D05D000BF002211462846FFF703
:10847000C1FE00BF7FBD70B58CB005460C461646E8
:1084800010225E49684606F097FC102C00DD10248F
:108490002246294604A806F08FFC68464DDF1022CC
:1084A00008A9304606F088FC0CB070BD38B56846A7
:1084B00006F077FA044600BF2546002D05D000BF20
:1084C000002211462846FFF795FE00BF00980028BD
:1084D00003D001204A49087038BD3CDF044600BF84
:1084E0002546002D05D000BF002211462846FFF783
:1084F00081FE00BF00BFEFE710B50446022C02D09A
:10850000032C0BD100E000BF3D480078002804D0C8
:1085100000203B490870FFF7C9FF00E000BF00BF23
:1085200010BD10B50446204605F0B6FE2046FFF704
:10853000E3FF10BD70B52B4873DF044600BF25462E
:10854000002D05D000BF002211462846FFF752FE3D
:1085500000BF70BD70B504462088102804D01128D3
:108560000ED019282ED12CE0A088264908801E485C
:108570000068002803D01C4909680869804722E088
:10858000A5790020C0431F490880082D09D116484D
:10859000006800280ED0144800684169012088470F
:1085A00008E011480068002804D00F4800684169BD
:1085B000002088470C480068002801D1FFF7BAFF67
:1085C00001E000E000BF00BF70BD0000501C0020B3
:1085D0000400FA0500ED00E0181B002090FE0000EA
:1085E000EFBEADDE381C0020501B0020418301008F
:1085F0000C1C0020A3830100111B0020F2F00100DD
:10860000101B0020121B002010B50446204604F069
:10861000E0FE2146BA4800F063FD2046FFF79AFFCE
:1086200010BDF0B585B0B748006880300068B64925
:10863000884217D100BFB34909688031002348221E
:108640004868B24906F0F9FA074600BF0097009F54
:10865000002F05D000BF002211460098FFF7CAFD89
:1086600000BF13E000BF00234822A949132006F0F1
:10867000E4FA009000BF009F002F05D000BF002249
:1086800011463846FFF7B6FD00BF00BF002001903D
:1086900002906946087101204002029001A860DF43
:1086A000044600BF2746002F05D000BF0022114618
:1086B0003846FFF79FFD00BF964806F0F4FA0446DF
:1086C00000BF2746002F05D000BF002211463846C4
:1086D000FFF790FD00BF904806F0EEFA044600BF99
:1086E0002746002F05D000BF002211463846FFF76D
:1086F00081FD00BF894871DF894A06218748401CF7
:10870000FFF7B9FE01208549087086A00390002676
:10871000002504E00398405D8019C6B26D1C082D49
:10872000F8D37E48407880197C494870002070DF7B
:1087300000BF6846007C01090901491C0491684694
:10874000007CF02188431030049000BF7848006816
:1087500006F010FB87B23A467548016804A87CDF32
:10876000044600BF2746002F05D000BF0022114657
:108770003846FFF73FFD00BF05B0F0BD1CB504460D
:10878000664903C901910090684640780019C1B25A
:10879000684641706946002070DF1CBD70B574DF0B
:1087A000044600BF2546002D05D000BF002211461B
:1087B0002846FFF71FFD00BF70BD5E490882704765
:1087C00070B55D4800885D4988420FD013215A4832
:1087D000008876DF044600BF2546002D05D000BF87
:1087E000002211462846FFF705FD0CE074DF044621
:1087F00000BF2546002D05D000BF002211462846A7
:10880000FFF7F8FC00BF70BD4B4800884B49884219
:1088100001D0012070470020FCE770B54648008871
:10882000464988420FD013214348008876DF04462A
:1088300000BF2546002D05D000BF00221146284666
:10884000FFF7D8FC00BF70BD70B50646304677DF35
:10885000044600BF2546002D05D000BF002211466A
:108860002846FFF7C7FC00BF70BD704770477047D0
:1088700001F03CF800F090FAFFF7D3FEFFF7A2FDFD
:1088800000F09EFBFFF723FDFFF74BFDFFF773FDA5
:1088900000F020F902F0F2F92948006800280DD014
:1088A000002002F080FF02F076F9254800680028D9
:1088B00011D023490968486880470CE0012002F084
:1088C00072FF20A0FFF7B1FC01F0CDFEC820FFF73A
:1088D00074FFFFF72FFE00BF02F0D7FE00F0D2F9C1
:1088E00002F039F848DF044600BF2546002D05D0C8
:1088F00000BF002211462846FFF77CFCECE7000091
:108900000C1C0020141B0020A55AA55A601C002036
:10891000A81C002009860100238501001C1B0020E3
:10892000501C002031363A32333A3538000000000E
:10893000181B0020381C0020121B0020FFFF000025
:10894000501B00204F5441204D6F64650000000013
:1089500010B55A480068002811D000205749086017
:108960005748846801205749486057490C80574848
:10897000006800F0F5F800205449086000BF10BD01
:1089800070B5072032DF044600BF2546002D06D013
:1089900000BF002211462846FFF72CFC00BF00BF95
:1089A0000321072033DF044600BF2546002D06D0F3
:1089B00000BF002211462846FFF71CFC00BF00BF85
:1089C00007202EDF044600BF2546002D06D000BF3D
:1089D000002211462846FFF70DFC00BF00BF002013
:1089E0003649086001203749086070BD10B504465B
:1089F00036480068002800D010BD344804600120CB
:108A00003349486018202E49486000202B490860EF
:108A100001202B490860FFF7B3FF00BFECE7F7B573
:108A200006460F4629480068002800D0FEBD2749A9
:108A300002980860052E1CD008DC012E11D0022EF1
:108A400011D0032E11D0042E17D110E0062E12D013
:108A50001A2E02D01B2E10D101E001240DE00224B9
:108A60000BE0042409E0082407E0102405E020249A
:108A700003E0402401E0802400BF00BF082F02D0A3
:108A8000092F04D101E0002503E0012501E00225C2
:108A900000BF00BF01200E49486028460821084356
:108AA000210208430649486000200449086001206B
:108AB00003490860FFF764FF00BFB7E7007100409B
:108AC0000075004000700040281B0020241B00207F
:108AD0000073004010B5002407E0601C0001A149AC
:108AE000401821019F4A5050641C1F2CF5DB0021C7
:108AF0009D4801679B489D490860FF30F130486000
:108B00001F209B4988600821112000F0F4F8012003
:108B10000004984948609749403948601120012174
:108B20008140954A116000BF00BF01218140934AF6
:108B3000116000BF01209249086010BD8B48006899
:108B400000280BD089480168884A086810601046E0
:108B50000068002800D15060084670470020FCE7FC
:108B6000F8B506460F46874DFFF7E8FF0446002C90
:108B70000DD06660A7600020E06020606868002873
:108B800003D0686804606C6001E06C602C60F8BD24
:108B900077484068704710B57B4B1B68002B12D09C
:108BA000FFF7F6FF784B1B68D968C31CCB1A1B0272
:108BB0001B0A764CA34201D20A4600E0C21C6C4B51
:108BC00040331A6005E0FFF7E3FF431E684C403472
:108BD000236010BDF7B507466B4EFFF7AFFF0446A5
:108BE000002C32D067600198A0600298E060356880
:108BF000002D07D0E868E168401A0002000A6349C6
:108C0000884207D2306820603460706800281AD12A
:108C1000746018E014E02868002808D02868C0684C
:108C2000E168401A0002000A5849884207D22868C1
:108C300020602C607068A84200D1746002E02D684A
:108C4000002DE8D100BFFFF7A6FFFEBD70B50446BA
:108C50000E4625682068006820602068002800D142
:108C600060606968A868884740484068002805D067
:108C70003E48406805603D48456002E03B4845602D
:108C8000056070BD70B5404C00BF002615E020683F
:108C9000002800D112E0FFF77BFF05462068C0687E
:108CA000281A0002000A3949884205D2294620467E
:108CB000FFF7CCFF012600E000E0E8E700BF314C01
:108CC0002068002804D000212046FFF7BFFF0126BE
:108CD000002EDAD1FFF75FFF70BD00202C4908603D
:108CE00000212B4841608160C16000202849403943
:108CF00008604860704710B5002819DA254A030754
:108D00001B0F083B9B089B00D2588307DC0EFF23F8
:108D1000A3409A438B071B0E8407E40EA3401A431B
:108D20001C4B0407240F083CA408A4001A5118E0A7
:108D3000124A03231B02D21883089B00D2588307D0
:108D4000DC0EFF23A3409A438B071B0E8407E40E1F
:108D5000A3401A43094B032424021B198408A400CE
:108D60001A5110BDF01C0020701E00202C1B00208A
:108D7000001501404013014080E200E000E100E006
:108D8000001001403C1B0020341B0020FFFF7F002F
:108D9000401101401CED00E010B50020C0438149A6
:108DA00088600620012181407F4A116000BF0321B5
:108DB00000F0B7F80620012181407C4A116000BF15
:108DC00010BD70B504460D46012D06D0022D0FD002
:108DD000032D12D0042D1AD114E000BF0320052169
:108DE0000907072212028918A200885000BF0EE06E
:108DF0000021204600F0CCF809E00321204600F0D5
:108E0000C7F804E00121204600F0C2F800BF00BF0F
:108E100070BD30B5024610460B46002B06D100BF90
:108E200001248440624DEC6000BF06E000BF0124D5
:108E300084405F4DAC6000BF00BF00BF30BD014645
:108E400000BF5B480069C840C007C00F704730B51D
:108E50000A460023574CE3636306524C6360002AC2
:108E600001D0990B01E00321090405231B07072406
:108E700024021B1984001B5903242404A343052442
:108E8000240707252D0264198500635105231B075C
:108E9000072424021B1984001B590B4305242407B3
:108EA00007252D0264198500635130BD052109078E
:108EB0000722120289188200895803221204914362
:108EC0000522120707231B02D2188300D150052167
:108ED0000907072212028918820089580522120701
:108EE00007231B02D2188300D1500121C9072D4A44
:108EF0009160704770B5044625462F4800680028E9
:108F000004D02D48006881682846884770BD10B598
:108F1000274804692046FFF7EDFF00202549C86374
:108F200010BD10B5002819DA244A03071B0F083BAF
:108F30009B089B00D2588307DC0EFF23A3409A4373
:108F40008B071B0E8407E40EA3401A431B4B040738
:108F5000240F083CA408A4001A5118E0134A032364
:108F60001B02D21883089B00D2588307DC0EFF2314
:108F7000A3409A438B071B0E8407E40EA3401A43B9
:108F80000A4B032424021B198408A4001A5110BDA3
:108F900010B58A0005231B07072424021B1984002F
:108FA0001A5110BD0063004080E200E000E100E0E3
:108FB0000005005040610040501B00201CED00E007
:108FC0001FB5044B0FCB6C460FC40349684663DFE3
:108FD0001FBD000004F10100441B00208A88C284E8
:108FE0000022FE4B1A8070470022D243C284704791
:108FF000F8B505460C4626461A36208B002826DD95
:109000002868002823D0208B022800DAF8BDF44815
:109010004078801CC82800DDF8E70020EF49088070
:10902000228B3146EE4805F0C7FE208BEB490988BC
:109030004018EA4908807078801C218B884205D14D
:10904000E7480090694628462A68904700BF00BF5D
:10905000DCE7F8B505460C4626461A36208B002874
:1090600026DD2868002823D0208BDC490988411898
:10907000DB484078801C814219DC228BD849D74BD1
:109080001B88C818314605F097FE208BD349098804
:109090004018D2490880D2484078801C098888420C
:1090A00005D1CF480090694628462A68904700BFFE
:1090B000F8BD70B504460E46B51D2888E188884283
:1090C00004D129462046FFF793FF07E02888E18A6C
:1090D000884203D129462046FFF7BBFF70BD704789
:1090E00070B505460C462088012815D0102804D0FC
:1090F000112807D0502814D109E021462846FFF74F
:109100006DFF0FE021462846FFF76EFF0AE021467B
:109110002846FFF7CEFF05E021462846FFF7DFFF90
:1091200000E000BF00BF70BD30B58FB004460D46F3
:109130001C2108A805F0A8FE08A80078082188438B
:10914000411808A80170002009900B900C900D9018
:109150000E90A448017868468172A34901810020DD
:10916000019000BF68460079010909016846017154
:109170000079F02188436946087100BF00BF684646
:10918000407901090901491C684641714079F02183
:10919000884310306946487100BF684680790621CF
:1091A0008843811C68468171807908218843014683
:1091B0006846817180791021884301466846817133
:1091C000807941084900491C68468171142103A82F
:1091D00005F05AFE02A8039001A8049000216846F9
:1091E0008182C1821721018300200790A088A31DDE
:1091F00003AA08A9A2DF0FB030BD30B58FB0044676
:109200000D461C2108A805F03FFE08A8007804219F
:109210008843011D08A80170002009900B900C9054
:109220000D900E906F480178684681726E49891CD6
:1092300001810020019000BF684600790109090101
:10924000684601710079F02188436946087100BFC2
:1092500000BF6846407901090901491C684641710F
:109260004079F021884310306946487100BF684654
:10927000807906218843811C6846817180790821A4
:1092800088430146684681718079102188430146F0
:1092900068468171807941084900491C684681719E
:1092A000142103A805F0F0FD02A8039001A8049082
:1092B000002168468182C182172101830020079026
:1092C000A0882346163303AA08A9A2DF0FB030BD39
:1092D00030B58FB004460D461C2108A805F0D4FD1A
:1092E00008A8007810218843411808A801700020C0
:1092F00009900B900C900D900E903A4801786846BA
:1093000081723949491C01810020019000BF6846E3
:10931000007901090901491C684601710079F021B1
:10932000884310306946087100BF00BF6846407925
:1093300001090901684641714079F0218843694675
:10934000487100BF6846807906218843811C6846C1
:10935000817180790821884301466846817180794E
:10936000102188430146684681718079410849008F
:10937000491C68468171142103A805F085FD02A8E7
:10938000039001A80490002168468182C1821721C0
:10939000018300200790A08823460E3303AA08A962
:1093A000A2DF0FB030BD30B58FB004460D461C2192
:1093B00008A805F069FD08A8007810218843411825
:1093C00008A80170002009900B900C900D900E9051
:1093D0000448017868468172034907E0461B002073
:1093E000F01E0020441B002001800000C91C0181E8
:1093F0000020019000BF6846007901090901491C5D
:10940000684601710079F02188431030694608717F
:1094100000BF00BF684640790109090168464171F3
:109420004079F02188436946487100BF68468079D9
:1094300006218843811C6846817180790821884310
:10944000014668468171807910218843014668464B
:109450008171807941084900491C68468171142155
:1094600003A805F011FD02A8039001A804900021B3
:1094700068468182C1821721018300200790A0885D
:1094800023461E3303AA08A9A2DF0FB030BDF8B5EA
:1094900005460E460121C90368460180444801780B
:1094A00068468170306828600020C043E8842A1D27
:1094B00069460120A0DF0446002C01D02046F8BDFB
:1094C00031462846FFF730FE0446002C01D02046E6
:1094D000F5E731462846FFF790FE0446002C01D000
:1094E0002046ECE731462846FFF7F2FE0446002C02
:1094F00001D02046E3E731462846FFF754FF0446F3
:10950000002C01D02046DAE70020D8E7F0B585B07E
:1095100004460F461646E08C264988421BD0049626
:1095200000200090019002900390E189684601803C
:10953000012181700021818004A802900397E08CB2
:109540006946A6DF0546002D04D16846008AB04270
:1095500000D00C2500E00825284605B0F0BDF0B588
:1095600085B004460F461646E08C124988421BD04F
:10957000049600200090019002900390E18B6846D1
:109580000180012181700021818004A8029003974D
:10959000E08C6946A6DF0546002D04D16846008AA6
:1095A000B04200D00C2500E00825284605B0F0BDEB
:1095B000441B0020FFFF0000F0B5B54C51252D01E4
:1095C000641985006459B34D2C40B14D51263601C4
:1095D000AD198600AC51AE4C51252D0164198500A2
:1095E00065590C021F2636023440160403273F0437
:1095F0003E4034431E0501273F053E40344325438A
:10960000A34C51263601A4198600A551F0BD70B5B2
:10961000064635460021A048C16081604160016076
:10962000002476E0204600F023F9691C085D00F074
:10963000FFF8281D005D00280CD1984AD279D20786
:10964000D20F01235A401146944A521C105D00F07B
:1096500002F95CE0281D005DFF2809D18F4AD2790C
:10966000D107C90F8D4A521C105D00F0F4F84EE08E
:10967000281D005D8A49152292018918A200885090
:10968000691C085D00F0D4F8E879C007C00F002815
:109690000BD0691C085D00F0D4F8681C015D012343
:1096A00002222046FFF788FF0AE0691C085D00F0EF
:1096B000CDF8681C015D002301222046FFF77CFFE6
:1096C00000BFA100774A891809690322114308469F
:1096D0001F21090201436E4A51231B01D218A30026
:1096E000D15000BF00BF00BF694951221201891843
:1096F000A200885000BF6848A300C118A000644BB6
:10970000C218204623DF0121A140084621DF601C4A
:10971000C4B2032C86DB70BD70B504460D4603222F
:1097200021465E48401C05F047FB5C49CD71002096
:10973000087070BD10B55848C068002810D00021CE
:109740005548C16055480078002809D00120544987
:109750004860C8605148FFF75AFF0120504908602F
:1097600010BD10B5504801F03BFB040001D020466D
:1097700010BD0120494908704C49C86307204C4975
:109780000861002088604860FF2045491522920149
:109790008918C86003210A2033DF0A202EDF012048
:1097A000C004444948603D48FFF731FF01203C496F
:1097B00008600020DCE710B500203849087001205F
:1097C0003749C860486000203849C863002414E065
:1097D000204600F04DF83149491C085D00F028F89A
:1097E0002E4AD279D207D20F01235A4011462B4A72
:1097F000521C105D00F02FF8641C032CE8DB01F014
:1098000002FB10BD10B50446032221462348001D6B
:1098100005F0D2FA21480078012808D12049486093
:10982000C8601E48FFF7F3FE01201D49086010BD07
:1098300003210522120707231B02D2188300D150EF
:109840007047012181401C4A91607047012181408D
:10985000194AD160704770B505460C46002C03D1FB
:109860002846FFF7F3FF02E02846FFF7EAFF70BD46
:1098700007495122120189188200895889088900F4
:10988000034A51231B01D2188300D15070470000B6
:1098900000600040FFE0ECFF40A10040481B0020BA
:1098A00000A000400065004035970100C0AF0040B7
:1098B00000A5004000A300400005005070B586B030
:1098C00005460C461646122C00D91224684605712E
:1098D000447122463146801D05F06EFAA01CC2B2CA
:1098E00001A91348FFF712FE06B070BD10B511486C
:1098F000114908600846006800680021C943884291
:1099000003D100200C49086004E00B48006801689E
:109910000A48884710BD38B5684652DF0098C1171D
:10992000890F091889100C460A3C60B238BD000046
:109930000C1C002000010200501B002024F101003B
:1099400070B505462C46207B00F0FFF8207B0121F6
:10995000002906D100BF01228240804BDA6000BF9F
:1099600006E000BF012282407C4B9A6000BF00BF2E
:1099700000BF02207A4951221201891882008958B9
:1099800089088900764A51231B01D2188300D150DF
:1099900000BF01207349C86000207349C863616833
:1099A000A068884209D2FFF7F3F8064632363246FD
:1099B00029466E48FFF70EF915E0607B401C607386
:1099C000607B03280CDA002069498860FFF7E0F823
:1099D00068494618324666496448FFF7FBF802E0DA
:1099E00000206349887370BDFEB504462546AA6809
:1099F0009200286881580120C00305F08BFA02907C
:109A000001205849C8605849C86309205A4908616B
:109A1000287B00F09AF80020574988600298800857
:109A2000554940310860029840084E49152292017C
:109A30008918486000205049486002204F4908605A
:109A400000214E48C03841600160454A0832014655
:109A5000002023DF012021DF02202A7B03210123B4
:109A6000019300923E4A51231B01D2188300D25821
:109A7000434B1A403A4B512636019B1986009A51A6
:109A8000374A51231B01D2188300D658009A12027C
:109A90001F231B021A400B040F043B401A43019B77
:109AA0001B05C7043B401A4316432D4A51231B0193
:109AB000D2188300D65000BF00BF8200314BD218AD
:109AC000126903231A4311461F2212020A43244B30
:109AD000512636019B1986009A5100BF00BF00BF76
:109AE0001F4A51231B01D2188300D15000BF01200F
:109AF0001C490860A868401CA860FFF749F80646A2
:109B0000C836324621462048FFF764F8FEBD70B5DE
:109B10000446174804731D4815490860042048602E
:109B20000020886048730846807BC007C00F00286B
:109B30000AD101208873FFF72BF8054632352A46F3
:109B40000B490A48FFF746F870BD032105221207AA
:109B500007231B02D2188300D15070470005005024
:109B60000060004000A00040C0AF0040E999010043
:109B7000B81F0020DC05000000A5004000A2004046
:109B8000FFE0ECFF006500404199010014F1010085
:109B9000F0B585B005460E461746002000902846D1
:109BA0008038030005F097FA08050B11171D2338BC
:109BB0003E4C3A463146284601F0D8F840E03A4655
:109BC0003146284600F07FFD3AE03A4631462846C5
:109BD00000F026FE34E03A463146284601F0D6FD34
:109BE0002EE03A463146284601F001FE28E002AA5E
:109BF00001A9102001F012F80446002C06D102AA97
:109C0000684601792846FFF759FE04E06A460121BB
:109C10002846FFF753FE13E00BA208212846FFF762
:109C20004DFE0DE0082E0AD13A463146102000F0D4
:109C3000DDFF04466A4601212846FFF73FFE00BFCC
:109C400000BF05B0F0BD0000312E312E3200000003
:109C5000484908607047FFB585B01646454800681A
:109C6000C079B04204DC43480068007AB04204DAAC
:109C700040480068007909B0F0BD3E49096888791C
:109C8000C117490F0918C910C900411A002908DD78
:109C9000384909688879C117490F0918C9104C1C3F
:109CA00006E0344909688879C117490F0918CC10B2
:109CB0003048006840796043401CC0B203902D4892
:109CC000006802682B480068C079311A0398414344
:109CD000501802900298007804900298401C02905C
:109CE00000252BE00020019023E0284660430299E4
:109CF00041180198085C0090002714E00120B8404A
:109D00000099084000280CD00198C200069810184D
:109D1000C01981B20598401983B21846089A00F01C
:109D20002BF8781CC7B2082FE8DB0198401CC0B2A2
:109D300001900198A042D8DB681CC5B20498854206
:109D4000D0DB049897E7FFB581B005460F4614466F
:109D50000AE0227839462846049BFFF77CFFC6B20A
:109D6000701C281885B2641C20780028F1D105B039
:109D7000F0BD0000641B0020F7B582B004460E461B
:109D8000FE480088401EA04204DBFD480088401EBB
:109D9000B04201DA05B0F0BDF849098871430819ED
:109DA000C117490F091849030D0C2046E117490F47
:109DB0000918C910C900611A0722521A01219140DD
:109DC000CFB20498022807D1EE480068405D784081
:109DD000EC49096848551BE00498002801D101208E
:109DE00000E00020E8490978C907C90F4840002869
:109DF00007D0E4480068405DB843E2490968485527
:109E000006E0E0480068405D3843DE49096848558F
:109E1000F3B2E2B2F1B2E0B2019000F045FA00BF55
:109E2000B8E7F0B587B004460D4616461F46791BC5
:109E3000002901DB0A4600E04A42301B002801DB12
:109E4000034600E043429A4201DD012200E0002285
:109E500006920698002806D0E0B22C460546F0B2DD
:109E60003E46074600BFB44206DDE0B23446064631
:109E7000E8B23D46074600BFFBB2F2B2E9B2E0B23B
:109E8000019000F011FA301BC0B20590781B002839
:109E900001DB014600E04142C9B204910598C10FBF
:109EA0000918491049B20391BD4202DA012002901B
:109EB00002E00020C04302901FE00698002805D071
:109EC000214628460C9AFFF757FF04E02946204612
:109ED0000C9AFFF751FF04990398401A40B203907F
:109EE0000398002807DA0298281885B20599039884
:109EF000401840B20390601C84B2B442DDDD07B06C
:109F0000F0BDFEB504460D4616461F4620B2019030
:109F100015E028B200900AE0009A91B2019A90B23E
:109F2000089AFFF729FF0098401C00B20090E91939
:109F300000988142F0DC0198401C00B20190A11908
:109F400001988142E5DCE819401EC3B2A019401E09
:109F5000C2B2E9B2E0B2009000F0A6F9FEBDFFB5D2
:109F600081B005460E4617462CB20EE0A0B231462F
:109F70000A9AFFF701FF049AB218521E91B2A0B2DA
:109F80000A9AFFF7F9FE601C04B2E819A042EDDC62
:109F900034B20DE0A1B228460A9AFFF7EDFEA1B255
:109FA000EA19521E90B20A9AFFF7E6FE601C04B24C
:109FB00004983018A042EDDC04983018401EC3B25B
:109FC000E819401EC2B2F1B2E8B2009000F06CF99C
:109FD00005B0F0BDFFB585B004460D46164601201C
:109FE000801B40B20490012003907000404240B2B8
:109FF0000290002770B20190A819C3B2A019C2B292
:10A00000A81BC1B2A01BC0B2009000F04DF9A81966
:10A0100081B22046089AFFF7AFFEA81B81B2204606
:10A02000089AFFF7A9FEA11988B22946089AFFF7F6
:10A03000A3FEA11B88B22946089AFFF79DFE5AE0AD
:10A04000049800280CDB0198401E40B20190029851
:10A05000801C40B2029002990498401840B20490CB
:10A06000781C47B20398801C40B20390039904986F
:10A07000401840B20490019AAA1891B2E21990B225
:10A08000089AFFF779FE019AAA1891B2E21B90B2E2
:10A09000089AFFF771FE019AAA1A91B2E21990B2DA
:10A0A000089AFFF769FE019AAA1A91B2E21B90B2D0
:10A0B000089AFFF761FEEA1991B2019AA21890B2CC
:10A0C000089AFFF759FEEA1991B2019AA21A90B2C2
:10A0D000089AFFF751FEEA1B91B2019AA21890B2BA
:10A0E000089AFFF749FEEA1B91B2019AA21A90B2B0
:10A0F000089AFFF741FE01988742A1DB09B0F0BD45
:10A10000FFB587B007460E4615460120401B40B2FA
:10A110000690012005906800404240B20490002063
:10A12000039068B202907019C3B27819C2B2701B62
:10A13000C1B2781BC0B2019000F0B6F8701B04B237
:10A1400006E0A1B238460A9AFFF716FE601C04B278
:10A150007019A042F5DA55E0069800280CDB029849
:10A16000401E40B202900498801C40B204900499B2
:10A170000698401840B20690039807E05C1B002048
:10A180005E1B0020541B0020601B0020401C40B2BE
:10A1900003900598801C40B20590059906984018D8
:10A1A00040B206900298301A04B20FE0A1B2039AAE
:10A1B000BA1890B20A9AFFF7DFFDA1B2039ABA1A51
:10A1C00090B20A9AFFF7D8FD601C04B202983018CA
:10A1D000A042EBDA0398301A04B20FE0A1B2029A5F
:10A1E000BA1890B20A9AFFF7C7FDA1B2029ABA1A3A
:10A1F00090B20A9AFFF7C0FD601C04B203983018B1
:10A20000A042EBDA029903988842A5DB0BB0F0BDBF
:10A21000FFB583B005460E4600242AE0002723E060
:10A22000069979430819C117490F09184903090C00
:10A2300002912046E117490F0918C910C900621A96
:10A2400001219140C9B2019102990598405C0199A0
:10A250000840002806D0F21991B22A1990B20D9A3E
:10A26000FFF78AFD781C07B20C988742D8DB601C88
:10A2700004B206988442D1DB0C9FF7197F1EFBB213
:10A28000069FEF197F1EFAB2F1B2E8B200F00CF8A7
:10A2900007B0F0BD10B53D4C20603D4C21803D4CD9
:10A2A00022803D4C237010BD10B5394C2488641EAB
:10A2B000844203DA364C2478641EE0B2344C24889D
:10A2C000641E944203DA324C2478641EE2B2314CAC
:10A2D0002488641E8C4203DA2E4C2478641EE1B27A
:10A2E0002C4C2488641E9C4203DA2A4C2478641E79
:10A2F000E3B22A4C2478844201DD284C2070274C9C
:10A30000A478944201DA254CA270244C64788C42E3
:10A3100001DD224C6170214CE4789C4201DA1F4C33
:10A32000E37010BD1A480078401E1C4908700020D8
:10A33000887018480078401E48700020C870704728
:10A3400010B515480078C007C00F00280ED010487F
:10A3500000881049098848430446C017400F001977
:10A36000C1100A48006804F08DFD0EE0084800881E
:10A370000849098848430446C017400F0019C11016
:10A38000FF220248006804F058FD10BD541B002055
:10A390005C1B00205E1B0020601B0020581B00205F
:10A3A0002C4A10602C4A1160704710B501202B49CF
:10A3B000486000F007FD10BD10B500202849086076
:10A3C00025480068002801D1FFF7EFFF2548006805
:10A3D000002803D023490968C868804710BD70B5BC
:10A3E0000446214800F0DBFC050001D0284670BD82
:10A3F000184800681D49086101201849C8600020FC
:10A400001A498860194840300460002048600021E3
:10A410001348C1608160416001600321092033DF7E
:10A4200009202EDF0C480068002805D1FF200130EC
:10A430000B49C031086003E001200949C0310860C0
:10A44000012000040A4948600120044908600020F6
:10A45000CDE70000681B00206C1B0020009000402E
:10A4600040910040501B0020B9A30100009500401E
:10A470000093004000BF00BF00BFBFF34F8F00BF7D
:10A4800000BF00BFF348F449C86000BF00BF00BF71
:10A49000BFF34F8F00BF00BF00BF00E000BFFDE76C
:10A4A000FFF7E8FFF8B506465A2069460870002312
:10A4B0000422EA4804F0AAFA044600BF2546002D0B
:10A4C00006D000BF002211462846FDF793FE00BFCC
:10A4D00000BFF8BD38B5E2480078022832D1012427
:10A4E000000406E00168491C002901D0002404E0B2
:10A4F000001D0521C9038842F4D300BF002C0AD0F7
:10A500000420D7490870002000906A46012181206C
:10A51000FFF7D4F915E0D3480078401CD149087002
:10A52000084600780F2807DB032000906A460121C7
:10A530008120FFF7C3F904E00121C903880000F07E
:10A54000B7FB0CE0C6480078052808D1FEF720FBD1
:10A550000446323422460021C348FEF73BFB38BD97
:10A5600038B5BF480078042835D1C04909888A1E0B
:10A57000BF494978C4235943BE4BC818BC49891CFC
:10A5800004F0CAFB002807D1022000906A4601218E
:10A590008120FFF793F947E0B2480078401CB149A9
:10A5A0000870084600780F2807DB032000906A46F1
:10A5B00001218120FFF782F936E0AD484078C421BF
:10A5C00048430346A9480088821EA949891CA94816
:10A5D00000F085FB28E0A2480078052819D1A5489D
:10A5E0000068A549096888420BD1FEF716F9FEF705
:10A5F000CFFA04463234224600219B48FEF7EAFA9D
:10A6000012E0FEF70AF90121C903880000F050FBAF
:10A610000AE0FEF702F9FEF7BBFA0446323422469E
:10A6200000219148FEF7D6FA38BDF8B50D4614461C
:10A63000069F022D02D0042D06D102E0FFF790FF05
:10A6400003E0FFF747FF00E000BF00BF00BF264662
:10A65000002E06D000BF002211463046FDF7CAFD8D
:10A6600000BF00BFF8BD10B501207D4908708348C8
:10A6700000F071FB10BDF3B50C4600200021002254
:10A68000002300BF0FE0009EB55CDE000F46B74020
:10A6900039460E462E4331465B1C042B02D3002361
:10A6A00040180021521CA242EDD3FCBD70B50546F6
:10A6B0000E46002404E0285D03F099FA601CC4B241
:10A6C000B442F8DB70BDFEB50D461446207801900B
:10A6D00063480078002875D00198002804D001282C
:10A6E00013D0022810D149E05D48007801280BD131
:10A6F0000020634908605B490870022058490870CF
:10A700008103000400F0D4FA7BE055480078042867
:10A7100033D1052052490870002052490870594829
:10A720000068011F5348001DFFF7A5FF06460421DE
:10A7300055480068FFF79FFF861954480068401C81
:10A74000002810D04F480068401C00280BD04F480C
:10A750000068864207D1002304224B48016845481F
:10A7600000F0BDFAFEBDFEF713FA074632373A464F
:10A7700000213D48FEF72EFA00BF42E0384800783D
:10A7800004283DD100203E490860364908706078B1
:10A7900000280FD1A01C00683C490860A01C40683C
:10A7A00038490860022000906A4601218120FFF7A5
:10A7B00085F825E06078401E6070607800280ED132
:10A7C00000BF0AE01EE0811C615C2F4A1268115430
:10A7D000FF22811C6254411CC8B20428F3DB2348C9
:10A7E0000580FF2201322146214804F0E5FA607815
:10A7F000C42148430346AA1EA11C1E4800F06FFA5C
:10A8000000BF00BF00BFADE7F8B505460E461746CE
:10A81000069C1F480078002801D0FFF72BFEF8BDEA
:10A8200070B505460E46144600F0BAFF002810D158
:10A8300018A1204604F02AFB00280AD1012014495F
:10A840000870174800F087FA0121C903880000F05A
:10A850002FFA70BD0400FA0500ED00E0701B002027
:10A860007A1B0020781B0020A1A401007C1B002083
:10A87000C81F002000010200801B00202BA6010041
:10A88000501B00208C1B0020841B0020881B0020F4
:10A89000901B00204F54415F4D4F44450000000085
:10A8A00009A801000178002904D0032903D0042954
:10A8B00002D102E001E000E000BF00BF7047F7B541
:10A8C0008AB005460E4668460577467700218177AF
:10A8D000C17708A8017041700C98099000BF002052
:10A8E00006902648029080200390254804908020FE
:10A8F000059006A80323234A02A9009007A801F0A7
:10A9000066FC044600BF00BF2746002F06D000BFEC
:10A91000002211463846FDF76DFC00BF00BF0DB0A8
:10A92000F0BDF3B581B00646002510E0705D01F082
:10A93000D3FC044600BF2746002F06D000BF0022EC
:10A9400011463846FDF756FC00BF00BF6D1C02984B
:10A950008542EBD3FEBD08B509E00B48006800282E
:10A9600005D009480068C16968460078884768468C
:10A9700001F093FC0028F0D008BD0000C8200020A2
:10A9800048210020A5A80100501B002070B50646F4
:10A990000525ED03002400BF00E0641C60014019A0
:10A9A00080785A28F9D01820AB490870620100233A
:10A9B0000521C903A120800200F091F970BDF0B516
:10A9C000FFB092B001AEA127BF02002405E0002035
:10A9D000C043A10001AA5050641C902CF7D3E0247E
:10A9E0001CE0651E6801C01980785A2815D16801DD
:10A9F000385C400180198078FF280ED16801385CEE
:10AA00004001305CFF2808D16A01D1196A01BA5CA3
:10AA100052019019202204F0CFF9641E002CE0D1DD
:10AA2000002500BF0EE06001801980785A2808D107
:10AA3000620191192A466D1C52019019202204F0DE
:10AA4000BBF9641C122CEED31620834908706A01EE
:10AA5000002301A90520C00300F041F97FB012B026
:10AA6000F0BD70B50446254600207B4908702B4692
:10AA700020227A49A120800200F031F970BD10B582
:10AA80000446152074490870012189020520C0037D
:10AA900000F00EF910BD70B50546A124A40200BF58
:10AAA00004E0A0785A2800D004E0203415204003A8
:10AAB0008442F6D300BF15204003844204D3002112
:10AAC0006748FEF74DF809E0002063490870A120AF
:10AAD0008002241A21466348FEF742F870BD10B583
:10AAE000044619205C4908700020FFF7D4FF10BD10
:10AAF00010B5044617205849087007218902A12083
:10AB0000800200F0D5F810BD70B50446257856488F
:10AB10000068002804D054480068016A2846884725
:10AB200070BDFFB581B0054616461F460A9C6846B3
:10AB3000007A022802D0042829D118E0464800787B
:10AB4000002804D102A94948FEF70AF80EE042485D
:10AB50000078162803D10020FFF7CAFF06E03E4820
:10AB60000078182802D10020FFF7B9FF10E03A481A
:10AB70000078152803D10020FFF721FF06E03648B2
:10AB80000078172802D10020FFF700FF00E000BF87
:10AB900000BF05B0F0BD10B5354800F0DCF800206E
:10ABA0002D49087010BDF8B506460C4617462B4DCA
:10ABB000102E01DB0120F8BD1C2C01DB0220FAE77E
:10ABC0002E706C705A20A870002004E03A5C291D99
:10ABD0000A54411CC8B2A042F8DB01201E4908708B
:10ABE00000212448FDF7BCFF0020E4E7F8B5064645
:10ABF0000D461746194C267065705A20A07000202B
:10AC000004E03A5C211D0A54411CC8B2A842F8DB9A
:10AC100000211848FDF7A4FF0020F8BDF8B506464E
:10AC20000D461746A124A402134C0FE0A0785A2821
:10AC30000BD12078B04208D1607828702A78211D85
:10AC4000384604F0B9F80020F8BD203C0520C003C8
:10AC50008442EBD20120F7E7911B0020C82100209D
:10AC60007FAA010063AA0100501B002009AB01006C
:10AC700023AB010097AA0100E09F02007CB5384990
:10AC800003C90191009000203649086036496846A2
:10AC900003F099FE044600BF2546002D06D000BFF4
:10ACA000002211462846FDF7A5FA00BF00BF7CBD73
:10ACB000F8B504460D462C484460A9B203F0E0FE06
:10ACC000064600BF3746002F06D000BF00221146BF
:10ACD0003846FDF78FFA00BF00BF0020F8BDFFB572
:10ACE00081B00446154620484460049883B2AAB255
:10ACF0001D48029903F08AFE064600BF3746002F22
:10AD000006D000BF002211463846FDF773FA00BF97
:10AD100000BF002005B0F0BD70B504460D461646D4
:10AD200032462146284604F047F8002070BDFFB5A2
:10AD300081B004460D4616460A480068002808D02F
:10AD40000A980090324629462046064F049B3F68E9
:10AD5000B84705B0F0BD01460248016000207047C9
:10AD600008F201009C1B0020941B002070B5A0B0CD
:10AD700004460D46164610216846FDF72FFA6A462E
:10AD800010218020FEF79AFD20B070BD10B520483C
:10AD90000068002802D01E490868804710BD01469F
:10ADA0001B480079012801D11A487047002902D1B7
:10ADB000481E194A90600120154A10711046016022
:10ADC0000020F2E70020124908600871704710B5B2
:10ADD00012480068002802D010490868804710BD5A
:10ADE00001460E480079012801D10D48704700291D
:10ADF00002D1481E0B4A90600120084A107110468B
:10AE000001600020F2E700200449086008717047E3
:10AE1000A01B00200090004000930040A81B0020D1
:10AE200000A0004000A3004010B54748006800287B
:10AE300002D045480068804710BD4349086070470C
:10AE40000A200321C20607231B02D2188300D15017
:10AE500000BF00BF012181403C4A916000BF00BF9C
:10AE600000BF00BF00BF0A2001218140374AD160E6
:10AE700000BF704710B5044635480078012801DD51
:10AE8000012010BD16222146324803F095FF012013
:10AE90002F4908700020F4E710B52F48FFF77FFF17
:10AEA000040001D0204610BD0020FFF799FF0400E8
:10AEB00003D0FFF787FF2046F5E70020F3E770B5E2
:10AEC00086B004460D4622480078012802DD0120A4
:10AED00006B070BD1E480078002801D10220F7E7B7
:10AEE000FFF7DAFF060001D03046F1E71948007895
:10AEF00000280FD11748428A69460A80808A488014
:10AF000014221449891C01A803F056FF01A80FC898
:10AF100000F0BEFA02200E490870104800780028A0
:10AF200003D12946204600F0C9FA0020D0E708489E
:10AF30000078704710B5FFF745FFFFF764FF012069
:10AF400003490870002010BDB41B0020000500500C
:10AF5000B11B00200022002029AE0100B21B0020FE
:10AF600010B58200FE4BD218126903231A43114612
:10AF70001F2212020A43FB4B512424011B19840097
:10AF80001A5100BF00BF00BFF64A51231B01D2185F
:10AF90008300D15010BDF0B5F24C51252D0164193C
:10AFA00085006459F04D2C40EE4D51263601AD1907
:10AFB0008600AC51EB4C51252D0164198500655973
:10AFC0000C021F2636023440160403273F043E407D
:10AFD00034431E0501273F053E4034432543E14CE1
:10AFE00051263601A4198600A551F0BD10B5DF49E0
:10AFF000487800F0B4FA10BD10B5DC49487800215B
:10B0000000F0B6FA10BD10B5D848417800230322ED
:10B010000120FFF7C0FF0120FFF7A2FF10BD70B5B0
:10B02000D04A121DD249002023DF044600BF254626
:10B03000002D06D000BF002211462846FDF7DAF8A1
:10B0400000BF00BF012021DF044600BF2546002DC0
:10B0500006D000BF002211462846FDF7CBF800BFFE
:10B0600000BFC04A121DC249091D012023DF04464A
:10B0700000BF2546002D06D000BF002211462846FD
:10B08000FDF7B8F800BF00BF022021DF044600BF73
:10B090002546002D06D000BF002211462846FDF7A8
:10B0A000A9F800BF00BF70BD10B5884209D3962231
:10B0B000B04B1A60D622B04B1524A4011B195A605C
:10B0C00007E00A1AAB4B1A60AB4A15239B01D21852
:10B0D00051600022A74B403B5A6001221A610322B3
:10B0E0009A600222A24BC0331A6010BD70B50446AC
:10B0F0000D46FFF781FFFFF786FFFFF790FF294618
:10B100002046FFF7D1FF70BD10B5FFF76FFFFFF7C7
:10B110007AFF01209849086010BD10B501209649BA
:10B120004860FFF770FFFFF767FF10BD10B58F484D
:10B130000178002303220220FFF72DFF0220FFF7F2
:10B140000FFF10BD70B5874A08328C49022023DFFB
:10B15000044600BF2546002D06D000BF0022114640
:10B160002846FDF747F800BF00BF7E4A08328349F2
:10B17000091D032023DF044600BF2546002D06D00D
:10B1800000BF002211462846FDF734F800BF00BF7B
:10B19000744A083279490831042023DF044600BF8D
:10B1A0002546002D06D000BF002211462846FDF797
:10B1B00021F800BF00BF6B4A083270490C310520EE
:10B1C00023DF044600BF2546002D06D000BF002225
:10B1D00011462846FDF70EF800BF00BF684A6449D3
:10B1E000091D062023DF044600BF2546002D06D09A
:10B1F00000BF002211462846FCF7FCFF00BF00BF3D
:10B20000042021DF044600BF2546002D06D000BFE4
:10B21000002211462846FCF7EDFF00BF00BF0820C2
:10B2200021DF044600BF2546002D06D000BF0022C6
:10B2300011462846FCF7DEFF00BF00BF102021DFCB
:10B24000044600BF2546002D06D000BF002211464F
:10B250002846FCF7CFFF00BF00BF202021DF0446B7
:10B2600000BF2546002D06D000BF0022114628460B
:10B27000FCF7C0FF00BF00BF402021DF044600BF35
:10B280002546002D06D000BF002211462846FCF7B7
:10B29000B1FF00BF00BF70BD10B501203949486043
:10B2A00003208860001F384988600F200004486030
:10B2B000092001218140354A116000BF0A2100F0B8
:10B2C00017F9092001218140314A116000BF10BDEA
:10B2D00010B52649087800F042F910BD10B5234991
:10B2E0000878002100F044F910BD10B5FFF7F6FF13
:10B2F000FFF71CFFFFF726FFFFF7CEFF10BD10B5CD
:10B30000FFF70BFFFFF7EAFFFFF714FE002010BD69
:10B3100070B5044600251F480078A04206D1FFF70B
:10B32000EEFF05201B490870012070BD1948007808
:10B33000052802D00020C043F7E700F023F90546B6
:10B34000002D2BD014480088281885B20C480838E6
:10B35000152189014018A10045500F48058034E0AF
:10B360000065004000600040FFE0ECFF1622002076
:10B3700040A1004040A5004000A000404091004096
:10B3800008900040009500400093004080E200E0FB
:10B3900000E100E0BC1B0020B81B00209B480068B7
:10B3A0002146083101228A40104398490860984894
:10B3B00004709848408A98490988401885B297488F
:10B3C000152189014018A10045500020ADE710B5B6
:10B3D00000208E49086064208F4908800846008854
:10B3E0008F4908608B48C0888B49098840188A4972
:10B3F000088008460088894915229201891848600A
:10B40000844800898449098840188349088008468F
:10B4100000888249891888600320FFF779FFFFF7C9
:10B4200073FE01207D49C8600860002010BD10B582
:10B430007648C0380068012805D100207349C0391A
:10B440000860FFF765FF7148C0384068012806D1E1
:10B4500000216E48C03841600120FFF759FF6B485A
:10B46000C0388068012806D100216848C038816052
:10B470000220FFF74DFF6548C038C068012806D19B
:10B4800000216248C038C1600320FFF741FF10BDB2
:10B490000FB410B5142202A95E4803F08DFC614878
:10B4A000FFF7CBFC6A4651899089FFF71FFEFFF733
:10B4B0001CFF002010BC08BC04B0184770B505463E
:10B4C0000C46002003E0295C574A1154401CE21747
:10B4D000520F1219D2108242F5DA5448047000203B
:10B4E00053490880FFF7F4FEFFF771FF002070BD9D
:10B4F00010B5002819DA4F4A03071B0F083B9B08B9
:10B500009B00D2588307DC0EFF23A3409A438B078E
:10B510001B0E8407E40EA3401A43464B0407240F76
:10B52000083CA408A4001A5118E0434A03231B0254
:10B53000D21883089B00D2588307DC0EFF23A34058
:10B540009A438B071B0E8407E40EA3401A433A4B21
:10B55000032424021B198408A4001A5110BD0321DE
:10B560000522120707231B02D2188300D15070470F
:10B5700010B58A0005231B07072424021B19840029
:10B580001A5110BD70B50021294B1888C30F1B1824
:10B590005B10264C2478A34203DB0020244B188048
:10B5A00070BD234B1888C30F1B18DB05190E204BE9
:10B5B0001888C30F1B185B105B00C31ADAB21C4853
:10B5C0000088401C1A4B1880CC17640F6418E410D4
:10B5D000154D2C5D0846CD176D0F2D18ED10ED00A3
:10B5E0004E1B802535412C40002C07D0002A02D16B
:10B5F0000848C089D4E70748008AD1E7002A02D169
:10B6000004484089CCE703488089C9E7009200409C
:10B61000BC1B002016220020B81B00200090004018
:10B62000409500402FB40100E8210020B01B00200D
:10B63000BA1B00201CED00E000E100E00146484894
:10B6400081600020704770B50546002045490860BC
:10B6500043484560002400BF00BFC4600120424948
:10B660004860102001218140404A116000BF002144
:10B6700000F03EF81020012181403D4A116000BFDA
:10B6800001203C490860002070BD3B483949032235
:10B6900052028918C86170473748384908607047B6
:10B6A00035483449032252028918486070473248AD
:10B6B0003049032252028918886070472E482D496C
:10B6C000032252028918C860704710B525480068E7
:10B6D00001280CD12A480068002805D0294A506862
:10B6E000274A1268516A884700201E49086010BD29
:10B6F00010B5002819DA244A03071B0F083B9B08E2
:10B700009B00D2588307DC0EFF23A3409A438B078C
:10B710001B0E8407E40EA3401A431B4B0407240F9F
:10B72000083CA408A4001A5118E0114A03231B0284
:10B73000D21883089B00D2588307DC0EFF23A34056
:10B740009A438B071B0E8407E40EA3401A43084B51
:10B75000032424021B198408A4001A5110BD000000
:10B7600000050140000101400003014000E200E04B
:10B7700000E100E0000001403546526E0006014045
:10B78000501B0020000401401CED00E070B5044691
:10B790000D461646054A01218320FEF78FF870BD3D
:10B7A000024800787047014908707047BD1B0020AF
:10B7B00000BF00BF00BF00BF00BFBFF34F8F00BF7F
:10B7C00000BF00BF24482549C86000BF00BF00BFBC
:10B7D000BFF34F8F00BF00BF00BF00E000BFFDE719
:10B7E00070B504460D461646FDF717F870BDF8B55E
:10B7F00007460D4616460024012D00DB01250024D6
:10B8000001E0601CC4B2305D80210840002801D0F6
:10B81000AC42F6DBAC421DDA305D032810D004DC0C
:10B82000012807D0022813D109E0112809D01228D5
:10B830000ED10CE0324629463846FFF7B9FF08E042
:10B8400007E0324629463846FFF7CAFF01E000E02C
:10B8500000BF00BFF8BD00000400FA0500ED00E0E5
:10B860003B4A016811614168D16081689160C1689B
:10B870005162017CC907C90F01610222816911402F
:10B88000816104224169114041614269816911432A
:10B89000026911432E4A4032516101212C4A116044
:10B8A0007047F8B505460E4617460024002D01D016
:10B8B000002E00D1F8BD002F00D1FBE7285D00F07D
:10B8C00037F8641C09E0285D0090009800F030F81B
:10B8D00000F031F8611E7054641CBC42F3D300F0D8
:10B8E0002AF8611E705400BFE4E700B591B008204B
:10B8F0000A9009200B900A200C90012000070D905F
:10B90000002010900F900E900AA8FFF7A9FF11A336
:10B910000FCB099306AB07C3102201A906A8FFF7B6
:10B92000C0FF01AA10215520FDF7C8FF11B000BDCE
:10B930000749C861704700BF0A4989680029FBD0E0
:10B940000021084A916002498969C8B27047000025
:10B95000003500407869616F6A696E676C696E676F
:10B9600066656E0000310040002001210C4A5160E4
:10B970000C4A116000210C4A116001210B4A116030
:10B9800000BF094909680029FBD005498968C8B288
:10B990000121064A51600021014A516070470000B0
:10B9A00000D5004000D2004000D1004000D000404F
:10B9B000F7B584B004460F4606980678B01C1F28D9
:10B9C00003DC6078801C1F2802DD0C2007B0F0BD6E
:10B9D0001F20801B801E85B20295B11C781802A919
:10B9E0007DDF03900398002801D00398EEE72078CC
:10B9F000022808D168460089A84204DC0920019089
:10BA0000684605890BE0082001906078002804D082
:10BA10006078A84201DC657801E068460589681C09
:10BA2000C2B23046711CCEB23A543046721CD6B205
:10BA30000199395406980178A81C0818C1B20698D3
:10BA400001700020C2E7F8B505460C462078001DBD
:10BA50001F2801DD0C20F8BD684679DF0646002E60
:10BA600001D03046F7E703212278501C2070A954FA
:10BA700019212278501C2070A95420784119684659
:10BA8000008800F05EFA2178401820700020E2E77C
:10BA900030B503461078C01C1F2801DD0C2030BDD6
:10BAA00002241578681C10704C550A241578681CFF
:10BAB00010704C551578681C10704B550020EEE73F
:10BAC000FFB587B006461D46109C002006902078E2
:10BAD0000590002747E0B900706841180A88684659
:10BAE000028149884181002203A902A865DF0490F0
:10BAF0000498002802D004980BB0F0BD6846017B82
:10BB0000099881422ED10698002801D0002000E03B
:10BB10000220019020786946097B41180198081895
:10BB20001F2801DD0C20E7E70698002809D12078BE
:10BB3000401C20702278511C08982170A8540120C4
:10BB400006902078421903A902A865DF04900498A2
:10BB5000002801D00498CFE720786946097B401877
:10BB6000207000BF7F1C3088B842B4DC06980028E3
:10BB700006D021780598401C081AC1B205982954AE
:10BB80000020B9E7FFB581B0074615460A9E00962A
:10BB900002223846049B0299FFF792FF0446002CCC
:10BBA00002D0204605B0F0BD009610222946384646
:10BBB000049BFFF785FF0446002C01D02046F1E7E7
:10BBC0000020EFE701460888062808DB08881922CC
:10BBD000D201904205DD0888DE4A904201D007205C
:10BBE00070474888062808DB48881922D20190420D
:10BBF00005DD4888D74A904201D00720F0E7088841
:10BC0000D44A904208D04888904205D008884A8893
:10BC1000904201DD0720E3E70020E1E7F8B50646A2
:10BC20000D4614462078801D1F2801D90C20F8BD30
:10BC30003046FFF7C7FF0746002F01D03846F6E72A
:10BC400005212278501C2070A95412212278501C02
:10BC50002070A95422785119308800F072F92178A7
:10BC60004018207022785119708800F06AF9217804
:10BC7000401820700020DAE7F8B505460E46144655
:10BC80002879801CC7B22078801CC0191F2801DDCC
:10BC90000C20F8BD781CC1B22278501C2070B15421
:10BCA000FF212278501C2070B154227891192888E5
:10BCB00000F047F9217840182070A88800280EDD90
:10BCC000A868002801D10720E3E7AA8823789819FB
:10BCD000A96803F071F820782979401820700020B5
:10BCE000D7E7FEB507460E461446B86A002801D1CC
:10BCF0000720FEBD0020019032E0B96A0C220198B5
:10BD000050430D182879801CC0B200900098401C48
:10BD1000C1B22278501C2070B15416212278501CD8
:10BD20002070B15422789119288800F00AF92178FE
:10BD300040182070A88800280EDDA868002801D1CE
:10BD40000720D6E7AA8823789819A96803F034F861
:10BD500020782979401820700198401CC0B20190C9
:10BD60002C20C15D01988142C7DC0020C1E7F8B5F5
:10BD700004460F461546002600202870207800282B
:10BD800009D02A4639462046FFF712FE0646002E05
:10BD900001D03046F8BDA078002808D029463846A2
:10BDA000FFF751FE0646002E01D03046F2E7E0785C
:10BDB00000280ED002212A78501C2870B954012185
:10BDC0002A78501C2870B954E1782A78501C2870C1
:10BDD000B954606800280BD00020616808562A46D4
:10BDE0003946FFF755FE0646002E01D03046D1E712
:10BDF000208900280CDD3B4606220221204608301F
:10BE00000095FFF7BFFE0646002E01D03046C1E781
:10BE1000208A00280CDD3B460722032120461030F3
:10BE20000095FFF7AFFE0646002E01D03046B1E781
:10BE3000208B00280CDD3B461522142120461830AB
:10BE40000095FFF79FFE0646002E01D03046A1E781
:10BE5000206A002809D02A463946206AFFF7DEFE0C
:10BE60000646002E01D0304694E7606A002809D0CB
:10BE70002A463946606AFFF7FFFE0646002E01D0CB
:10BE8000304687E72C20005D002809DD2A46394628
:10BE90002046FFF726FF0646002E01D0304679E700
:10BEA000304677E70146C87804221040002801D1C7
:10BEB000072070470020FCE70146C878002801D021
:10BEC000072070470020FCE7F3B593B00D46002132
:10BED000129111911398002814D01398FFF7E2FFE4
:10BEE0000446002C02D0204615B0F0BD12AA09A9C4
:10BEF0001398FFF73CFF0446002C01D02046F3E7DF
:10BF000009AE00E00026002D13D02846FFF7D4FF2D
:10BF10000446002C01D02046E6E711AA01A92846D4
:10BF2000FFF725FF0446002C01D02046DCE701AFD7
:10BF300000E0002710A803793A46017A304672DF04
:10BF4000D2E702460A70FF2000021040001248703B
:10BF500002207047FFFF00000020F8490870012010
:10BF6000F749C86048600020F649086070471CB572
:10BF70000120F349C860F149087003206946087040
:10BF80006846F149096888471CBD08B5EB48007848
:10BF9000022802D00120EA4988606946EB4802F095
:10BFA000CFFD002802D0FFF7E2FF08BD8020E8495E
:10BFB000886068460078E349C8610220DF4908705C
:10BFC0008020E349486000BFEFE710B5DF48C06854
:10BFD000DE498968401A02D0FFF7D7FF01E0FFF77A
:10BFE000C6FF10BD10B5D5480078012802D0022840
:10BFF00007D102E0FFF7B0FF04E00320CF4908704B
:10C0000000E000BF00BF10BD10B5CC48007800288C
:10C0100002D0032817D112E00420CA490860012089
:10C02000C7490860C948C068C8498968401A02D031
:10C03000FFF7ABFF02E00120C049087004E00220D6
:10C04000BE49087000E000BF00BF10BD10B5BB487E
:10C050000078012807D0022804D0032806D1FFF772
:10C060007BFF04E000BFFFF7B0FF00E000BF00BFB0
:10C0700010BD10B5B1480078012801D1FFF785FF48
:10C0800010BD10B5FFF768FF10BD10B504462300C2
:10C0900003F021F80504070D0A101300FFF7A2FFB3
:10C0A0000CE0FFF7B1FF09E0FFF7D0FF06E0FFF774
:10C0B000E0FF03E0FFF7E5FF00E000BF00BF10BDB9
:10C0C0001CB5A4488068002830D00020A1498860B1
:10C0D000A148C068A0498968401A9F498988884258
:10C0E00020D298488069C1B29B4802F014FD0446F2
:10C0F000002C08D0012069460870019468469249D6
:10C100000968884711E09448C06893498968401AD3
:10C1100001280AD100206946087068468A490968E2
:10C12000884702E001208D49087000BF8948C06936
:10C13000002805D000208749C8610320FFF7A5FF2C
:10C140008448406A00280FD00020824948627D4818
:10C1500080380468046002206946087001946846CB
:10C1600079490968884700BF1CBD042075490860EB
:10C17000002078498860C86172484030C06A400831
:10C18000400070494031C8620020C0436D4988605A
:10C19000086101206A498860086070470421694A83
:10C1A000116000216B4A9160D16166494031C96AD2
:10C1B00001221143634A4032D162C178614A116160
:10C1C0008178916001215E4A916011607047FFB5EE
:10C1D00081B004460D460020584908705A4903981A
:10C1E0000860002D02D1072005B0F0BDA88882B2FA
:10C1F0005948296802F07AFC0646002E01D03046E4
:10C20000F2E7A88982B25148A96802F06FFC06469D
:10C21000002E01D03046E7E760780321052212079F
:10C2200007231B02D2188300D15000BF20780021C1
:10C230008A0005231B0707273F02DB198700DA5115
:10C2400000BF60783F49C86020784861A0684862B4
:10C250006079002804D00E203A494031C86203E0DA
:10C26000002038494031C862FFF77FFF0120334981
:10C270000870801E36498860A12080004860022036
:10C2800001218140364A116000BF049900F073F823
:10C29000022000F069F80020A6E770B504460220ED
:10C2A000012181402F4A116000BF21462A4802F037
:10C2B00047FC054629480078002808D021488069B5
:10C2C000C1B2254802F027FC002024490870022052
:10C2D00000F04AF8284670BD70B5044621461B4858
:10C2E00002F019FC05460220FFF7CFFE284670BD7C
:10C2F00010B5194802F039FC0446002C01D0204644
:10C3000010BD124802F031FC0446002C01D020463A
:10C31000F6E70020F4E7014608480078002801D03D
:10C32000012000E0002008700020704710B504468E
:10C330000420FFF7AAFE002010BD0000C41B00204F
:10C340000020004000250040C01B00203C220020AF
:10C3500000230040002100402C220020C51B0020AB
:10C3600080E200E080E100E0C206D20E01219140AF
:10C370001C4A1160704710B5002819DA1A4A0307E1
:10C380001B0F083B9B089B00D2588307DC0EFF2342
:10C39000A3409A438B071B0E8407E40EA3401A4365
:10C3A000114B0407240F083CA408A4001A5118E0FC
:10C3B0000C4A03231B02D21883089B00D258830720
:10C3C000DC0EFF23A3409A438B071B0E8407E40E69
:10C3D000A3401A43034B032424021B198408A4001E
:10C3E0001A5110BD00E100E01CED00E010B504465C
:10C3F00001210C206043F74A80188172891E0C20AD
:10C40000604380180181FF210C2060438018C172B5
:10C410000C2161438818072102F034FD10BD10B5CE
:10C4200004461C216143EC4A891808461130062154
:10C4300002F028FD1C216143E74A8818102102F010
:10C4400021FDFF211C206043E34A801801741C2059
:10C450006043801881760021C9431C206043801806
:10C460000183204601F007FB10BD70B503460C4662
:10C470000820002115E00C254D43D64EAD19AD7AAC
:10C480002540002D0CD0D54DAB4205D00C254D4399
:10C49000AD192D899D4202D11160002003E00520D5
:10C4A000491C0029E7D000BF70BD7CB50546A9B284
:10C4B0006A46CB4802F093F80446002C09D1542177
:10C4C000684602F01BFA0446002C02D12846FFF70A
:10C4D000A6FF20467CBDF8B505460E46174605204A
:10C4E000009000241BE0002D06D11C206043BA49B7
:10C4F0004018008BB8420DD0002D0FD01C21614395
:10C50000B54A8918084610300722294602F004FC73
:10C51000002803D134600020009002E0641C072C46
:10C52000E1D300BF0098F8BD10B50446002010BD4F
:10C53000FEB504460E46A1786A46A94802F04FF8B7
:10C540000546002D49D160780C214843A149401887
:10C55000807A40210840402801D0022E01D1A14F0D
:10C5600004E0012E01D1A04F00E0A04FA0781C22D2
:10C570005043994A811800231C226846B847054653
:10C58000002D1AD1022E18D060780C214843914911
:10C590004018807A4021884361780C2251438D4AAB
:10C5A0008918887260781C225043914A81181C2394
:10C5B0001A466846B847054600BF022E0DD02078BF
:10C5C0000C2148438B494018807A80008A490A58D8
:10C5D000214668469047054600BFFEBDF3B585B0CD
:10C5E0000C4603270E20049061780C225143794AAF
:10C5F000891808893B4604AA6946AADF0646002E28
:10C600004DD16178182251437C4A89180846083078
:10C6100069460A8A02F080FB002812D160780C215A
:10C6200048436C494018807A02210840022836D0DD
:10C63000617818225143714A8818182102F024FCAD
:10C640002DE06078182148436C4940184068002864
:10C6500001D0644D00E0644D60781821484367497B
:10C660000F506946098A607818225043634A80183F
:10C670004160617818225143604A891808460830A1
:10C6800069460A8AFBF78EFD6078182250435B4AA0
:10C690008118382318220598A847064600BF0020B5
:10C6A00007B0F0BD02460020704770B505460C4645
:10C6B000617818225143514A881838231822294694
:10C6C00002F0ABF80646002E0FD1607818214843DF
:10C6D0004A4940184068401C002806D10021607873
:10C6E00018225043454A80184160304670BD0246CA
:10C6F00000207047F8B5054600270020009000266E
:10C700006878182148433D4940184068002827D0E0
:10C7100068780C2148432F494018807A80210840CE
:10C7200080281DD168780C2148432A494018807A16
:10C7300040210840402813D06878182148432F49E9
:10C740004018074608376878182148432B49401895
:10C75000808880B2009068781821484327490E5895
:10C7600069780C2251431B4A891808893346394697
:10C77000009AA9DF04460B2C0BD1012669780C2204
:10C780005143144A8918088933463946009AA9DF6B
:10C790000446002C00D01A4C012E18D169780C22C6
:10C7A00051430C4A891808890C4A0C21A7DF04461A
:10C7B000002C0CD01348844208D0082C06D0801CD2
:10C7C000844203D0112C01D0002400E00C4C204600
:10C7D000F8BD0000442300204C220020FFFF000091
:10C7E000C81B002051E7010087E6010029C50100B0
:10C7F000102300205023002010F201002C230020E1
:10C8000041800000023000000146002070470146D0
:10C81000002901D1FE487047FF20087048708870D9
:10C82000C8700020F7E7FFB591B00F461D4600BF66
:10C83000F8480068002801D115B0F0BD00BF1A9873
:10C84000542800D9F8E7012007900DA8FFF7DFFF73
:10C85000064600BF0696069E002E06D000BF0022A8
:10C8600011460698FBF7C6FC00BF00BF002108A8D0
:10C87000017501760C951A980B900020069016E031
:10C88000069881B208AAE44801F0A9FE0646002EE7
:10C890000AD1082208A9119802F03EFA002803D113
:10C8A00008A90698887505E00698401C0690069829
:10C8B0000728E5D300BF08A8807DFF2876D0042F85
:10C8C0000AD11A98542803D1202008A9087673E0C9
:10C8D000402008A908766FE0D049681A1C2102F0B0
:10C8E00019FB0446072C1DD20AA80F9013980028A4
:10C8F00010D108A9887D01218140C94A12681140E0
:10C90000002901D0012100E00021002902D10020EE
:10C91000079051E008A9887D01F0ADF8202008A912
:10C92000087649E0BF49681A1C2102F0F3FA044670
:10C93000002C1AD10AA80F90202108A8017644756E
:10C9400000200490B84905911C206043B549401867
:10C95000019008A8807D1C214843B04940180290EE
:10C9600001A80C9018200B9026E0B049681A1821F5
:10C9700002F0D0FA0446002C19D1302108A8017623
:10C9800044750121C1750C206043A9494018807A83
:10C990000221084002280FD008A9497D18225143DE
:10C9A000A24A8818182102F06FFA05E026E000205C
:10C9B0000790402008A90876079801281ED1042F67
:10C9C00006D108A9087E0321084308A908760EE0CD
:10C9D000032F06D108A9087E0121084308A908767B
:10C9E00005E008A9087E0221084308A908760AA8DC
:10C9F0000F900EA90DA8139A01F080F800BF1BE755
:10CA00007FB50646002E02D1814804B070BD0024D7
:10CA10000FE000BF00210C2060437E4A11500C2023
:10CA20006043801841720C2060438018817200BFFF
:10CA3000641C002CEDD0002403E02046FFF7D6FC58
:10CA4000641C002CF9D01821784802F01DFA00244B
:10CA500006E02046FFF7E3FCFF2076490855641CFA
:10CA6000072CF6D35421684681810721C181724881
:10CA70000290694902A801F019FD0546002D30D148
:10CA800001206E4908703078002821D100241CE074
:10CA9000A1B26A46604801F0A2FD0546002D0FD103
:10CAA0001C2161435D4A881800231C22694601F05D
:10CAB000B4FE0546002D07D000206049087006E04E
:10CAC00000205E49087002E0641C072CE0D308E0F7
:10CAD0006A469089D289504381B24F4801F00EFFD7
:10CAE0000546284691E770B505460C4600BF5348F9
:10CAF0000078002802D14648801F70BD00BF002D7D
:10CB000001D14348F9E7002C01D14148F5E72068FD
:10CB1000002801D13E48F0E73E480068002834D1A3
:10CB20003C49206808600522611D3A48001D02F05A
:10CB300043F92079374988720846007A4008400056
:10CB400008720846007A02218843801C3149087225
:10CB50000846007A042188432E4908720846C079A5
:10CB600040084000401CC8710846C0790221884333
:10CB7000801C2849C8710846C0790421884325498A
:10CB8000C87100202870002601E0214E0A3E304680
:10CB9000B3E770B5044600BF28480078002802D1EA
:10CBA0001B48801F70BD00BF002C01D11848F9E759
:10CBB00000BF2078012806DA20780C214843154967
:10CBC0000858002802D11248801FEBE700BF00BFC1
:10CBD0006078012807DA60780C214843144940182E
:10CBE000807A012802D10A48801CDBE700BF084D8B
:10CBF000AD1F60780C2148430D494018807A02210E
:10CC00000840022821D161780C225143084A17E0DC
:10CC10000E80000050230020C81B00204C22002062
:10CC2000D01B0020102300205C2300202C23002098
:10CC300044230020D51B002027C80100D41B00205E
:10CC400089180889FB497EDF05462846AAE702467F
:10CC500000BFF9480078002801D1F848704700BFAC
:10CC6000002A02D1F548801DF8E7002902D1F348D7
:10CC7000801DF3E700BF1078012807DA10780C2335
:10CC80005843EC4B1B1F1858002801D1EB48E5E72F
:10CC900000BF00BF5078012807DA50780C235843B2
:10CCA000E74BC018807A012802D1E4480830D5E764
:10CCB00000BF50780C235843E14BC018807A0423FE
:10CCC0001840002809D150780C235843DC4BC01879
:10CCD000807A20231840002802D0012008700EE03E
:10CCE00050780C235843D64BC018807A80231840C4
:10CCF000002802D00220087001E000200870002007
:10CD0000ACE7F8B5044600BFCB480078002801D155
:10CD1000CA48F8BD00BF002C02D1C848801DF8E702
:10CD2000002902D1C548801DF3E70868002802D118
:10CD3000C248801DEDE78868002802D1BF48801DE9
:10CD4000E7E700BF2078012807DA20780C25684340
:10CD5000B84D2D1F2858002801D1B848D9E700BF89
:10CD6000002300220020009000BF47E0002500952E
:10CD700000BF12E00C266E43B14FF619F67A8642D8
:10CD80000AD10C266E43F619B67A02273E40022ECF
:10CD900002D10126009602E06D1C002DEAD000BFF2
:10CDA000009D002D29D10D7B954211D91C254543AD
:10CDB000A44EAD19AD7EED07ED0F002D08D11C2559
:10CDC0004543AD1997008E68F5519F4EB054521CE3
:10CDD0000D799D4211D91C2545439A4EAD19AD7E62
:10CDE00002263540002D08D11C254543954EAD192E
:10CDF00010359F000E68F5515B1C401C0728B5D309
:10CE00000B710A73002084E702468C488830704713
:10CE100070B5044600BF88480078002801D18748D3
:10CE200070BD00BF002C02D18448801DF8E700BF10
:10CE30002078012807DA20780C2148437D49091F12
:10CE40000858002801D17D48EAE700BF00BFA0785C
:10CE5000072807DAA0781C2148437A494018807EC9
:10CE6000FF2802D175480830DAE700BFA078FFF745
:10CE70001CFB05462846D3E770B5044600BF6E4844
:10CE80000078002801D16D4870BD00BF002C02D190
:10CE90006A48801DF8E700BF2078012807DA20786B
:10CEA0000C2148436349091F0858002801D16348F1
:10CEB000EAE700BF002600250BE01C20684361491B
:10CEC0004018807EFF2803D02846FFF7EEFA06467A
:10CED0006D1C072DF1D33046D6E7FEB504460D464E
:10CEE00000BF55480078002801D15448FEBD00BF5E
:10CEF000002C02D15148801DF8E7002D02D14F4887
:10CF0000801DF3E700BF2078012807DA20780C2184
:10CF100048434849091F0858002801D14748E5E718
:10CF200000BF00BF6078012807DA60780C21484311
:10CF300043494018807A012802D140480830D5E79B
:10CF400000BF00BFA078072807DAA0781C2148435B
:10CF50003C494018807EFF2802D138480830C5E798
:10CF600000BFE868002813D0A868002810D0A8687F
:10CF70000E280DD2287801280AD1637818277B4320
:10CF8000324FDB1918460830AA68E96801F014FF2F
:10CF9000A1786A462E4801F022FB064628788000D8
:10CFA0002C490A58214668469047064630469DE778
:10CFB0007CB504460D4600BF1F480078002801D10B
:10CFC0001E487CBD00BF002C02D11C48801DF8E724
:10CFD000002D02D11948801DF3E700BF20780128F9
:10CFE00007DA20780C2148431249091F0858002805
:10CFF00001D11248E5E700BF00BFA078072807DA93
:10D00000A0781C2148430F494018807EFF2802D198
:10D010000A480830D5E700BF60780C21484308492A
:10D020004018807A02210840022815D00348893030
:10D03000C7E7000054230020D41B00200880000014
:10D04000442300204C220020D51B00202C2300204C
:10D05000C81B002010F20100E868002813D1A8685E
:10D060000E2810D2287801280DD160781821484365
:10D07000FE4940180830E860607818214843FB49B1
:10D0800040184168A960A1786A46F94801F0A7FAFA
:10D09000064628788000F7490A5821466846904796
:10D0A000064630468DE7014600BFF3480078002869
:10D0B00001D1F248704700BF002902D1EF48801D1E
:10D0C000F8E700BF0878012806DA08780C225043F8
:10D0D000EB4A1058002801D1E848EBE700BF00BF39
:10D0E0008878072807DA88781C225043E54A801898
:10D0F000807EFF2802D1E1480830DBE700BFDF482F
:10D100008830D7E70246DD48893070470246DB4861
:10D11000893070470146D94889307047024600BFC0
:10D12000D5480078002801D1D448704700BF0029B5
:10D1300002D1D248801DF8E7002A02D1CF48801DD5
:10D14000F3E700BF1078012806DA10780C23584363
:10D15000CB4B1858002801D1C848E6E700BF10782B
:10D1600008700020E1E770B504460D4600BFC248D4
:10D170000078002801D1C14870BD00BF002C02D149
:10D18000BE48801DF8E7002D02D1BC48801DF3E7A2
:10D1900000BF2078012806DA20780C214843B849DE
:10D1A0000858002801D1B548E6E700BF00BFA078C5
:10D1B000072807DAA0781C214843B2494018807E2E
:10D1C000FF2802D1AD480830D6E700BF6078FF28BD
:10D1D0001CD12878022819D0A1781C225143A94AD1
:10D1E0008918084610300722294601F0E5FDA0788D
:10D1F00001218140A44A12681143A34A116000BF73
:10D2000002212046FFF794F9002601E09B4E761E8E
:10D210003046B1E770B504460E4600BF9648007828
:10D22000002801D1954870BD00BF002C02D1934861
:10D23000801DF8E7002E02D19048801DF3E700BF63
:10D240002078012806DA20780C2148438C490858B8
:10D25000002801D18948E6E700BF884DED1EA0787F
:10D26000FF2817D16078FF282AD060780C21484326
:10D2700086494018807A02210840022820D160782F
:10D280000C225043814A81180722304601F094FD58
:10D29000002515E0A0781C2148437A494018807E7B
:10D2A0000221084000280BD1A0781C225043754A67
:10D2B0008018014610310722304601F07DFD00251F
:10D2C0002846B0E770B58AB005460C4600BF6A48EC
:10D2D0000078002802D169480AB070BD00BF002D57
:10D2E00002D16648801DF7E7002C02D16348801DFB
:10D2F000F2E700BF2878012806DA28780C21484395
:10D300005F490858002801D15C48E5E700BF00BF2D
:10D31000A878072807DAA8781C21484359494018FB
:10D32000807EFF2802D155480830D5E700BF00BFF6
:10D330000020E060A8781C2148435249411821612F
:10D3400000216161524860600020A06003A8206055
:10D35000A97801AA464801F042F90646002E17D1E5
:10D360001C231A4601A903A801F057FA0646002E0D
:10D370000ED1E060A8781C21484342494118216140
:10D3800000216161424860600020A06003A8206025
:10D390003046A1E77CB50446A1786A46344801F0DE
:10D3A0001EF90546002D13D161781C225143394ADC
:10D3B00088181C231A46694601F02FFA3048807AF3
:10D3C00080002C490A58214668469047054600BF10
:10D3D0007CBDF0B58FB00446FF200D9000260020E4
:10D3E000079000BF24480078002801D10FB0F0BD9D
:10D3F00000BF00BF22480068002800D1F6E700BF48
:10D400000CA8FFF704FA054600BF2F46002F06D0F0
:10D4100000BF002211463846FAF7ECFE00BF00BFFD
:10D42000002008900025201D0A902A216846818549
:10D43000FF2108A881740021017400200E9020882B
:10D4400010282AD0A0880EAA0221FFF70EF8054660
:10D45000002D22D10C210E9848430C494018C17A66
:10D4600008A881740E98C1B208A815E02C230020EA
:10D47000C81B002020F20100D41B002008800000FF
:10D48000502300204C220020D01B002044230020E9
:10D490005C230020102300204174208817287BD0B3
:10D4A00008DC10280DD011287CD0132876D0142841
:10D4B00075D1B5E0182873D01C2872D05228F7D146
:10D4C0007EE20EAF3A460121FE48FEF7CEFF009005
:10D4D0000098002807D102210C2238685043FA4AEC
:10D4E0008018817201E00420009000980546002D0C
:10D4F00051D10126112108A801710E98C1B208A8C6
:10D500004174A1880C220E985043EF4A8018018183
:10D5100002210C220E985043EB4A801881720C2293
:10D520000E995143E84A88180722A11D01F044FCD6
:10D53000207D304000280AD0207D4008E349085C67
:10D54000FF280AD0207D4008085C0D9005E0DD4AE8
:10D550000DA9A01DFEF7BFFF0546002D1BD10D989C
:10D56000C1B20C220E985043D74A8018C1720C21C8
:10D570000E98484311464018807A082108430C222F
:10D580000E995143D04A8918887208A90D98887459
:10D590000CA8FFF7FFFE22E2F9E003E085E01DE2C0
:10D5A000ABE116E20C210E984843C7494018807A37
:10D5B000022188430C220E995143C34A891888726C
:10D5C0000C210E98484311464018807A08210840E3
:10D5D00008280ED10C210E98484311464018807A35
:10D5E0008021084080280FD100210CA8FEF7A0FF61
:10D5F0000AE008A8807CFF2806D008A9887CFEF7EE
:10D600000EFFFF2008A9887410210C220E985043A9
:10D61000AD4A801881720126122008A90871DEE146
:10D620000C210E984843A8494018C07AFF2823D1FE
:10D63000E2890DA90020FEF74EFF0546002D1BD103
:10D640000D98C1B20C220E9850439F4A8018C172A7
:10D650000C210E98484311464018807A082108434F
:10D660000C220E995143984A8918887208A90D987E
:10D6700088740CA8FFF78EFE0C210E98484392493F
:10D680004018C07AFF2805D01C210E9848439049C5
:10D69000401807901C230E9959438E4BCA18A08836
:10D6A0000023079982DF054699E1132008A9087134
:10D6B0000C210E98484384494018807A042108437D
:10D6C0000C220E995143804A8918887201260C2138
:10D6D0000E98484311464018C07AFF2819D10C22F1
:10D6E0000E9850430A4681180DA800F0CCF9054663
:10D6F000002D0BD108A90D9888740D98C1B20C2289
:10D700000E985043704A8018C1721DE0089501269A
:10D710001AE0162008A9087118220E9951436E4A82
:10D720008918084608300E2101F0AEFB0C210E9836
:10D73000484365494018807A402108430C220E99DD
:10D740005143614A89188872002004900C210E9878
:10D7500048435D494018C07A1C2148435D4941183F
:10D760000591002106911C210E9848435849401804
:10D770000190002002900390A08801AB574A00213D
:10D780007FDF0546002D01D00895002627E153488C
:10D79000001F407A400840005049091F48720C2180
:10D7A0000E98484348494018807A042188430C2247
:10D7B0000E995143444A89188872142008A90871A7
:10D7C0000126A07900280AD00C220E9951433E4A26
:10D7D0008918C87AFEF769FEA07908908CE0E07994
:10D7E0004007C00F00287BD008A8807CFF2877D096
:10D7F0000C210E98484334494018807A0821084388
:10D800000C220E995143304A89188872E07A8007B9
:10D81000C00F00280FD008A8807C1C2148432D4948
:10D820004018807E4108490008A8807C1C22504393
:10D83000284A801881760C210E98484322494018C6
:10D84000C07AFF2858D00C210E9848431E49085C26
:10D85000022820D00C230E9A5A430B46D11808AA4E
:10D86000927C1C235A431B4BD218104610300722BF
:10D8700001F0A2FA08A8807C1C21484315494018F1
:10D88000807E0221884308A9897C1C225143114AC9
:10D89000891888762CE01C210E9848430C494018C2
:10D8A000418A08A8807C1C2250430A4A80180183C0
:10D8B00008A8807C1C21484311464018807E4108FE
:10D8C00049000EE0FFFF000044230020D51B00208C
:10D8D000102300204C2200202C2300205423002061
:10D8E0000AE008A8807C1C225043A44A8018817654
:10D8F00001210CA8FEF71CFE71E0A07900090128A7
:10D900003DD1A0790007000F012838D10C210E98D5
:10D9100048439B494018807A0821084008282ED1A6
:10D9200018220E995143974A891808180E2101F0C0
:10D93000ABFA162008A908710C210E9848439049AB
:10D940004018807A202108430C220E9951438C4ABA
:10D95000891888720C210E98484311464018807A25
:10D96000402108430C220E995143854A8918887238
:10D970008548407A02210843834948721CE00C2103
:10D980000E9848437E494018807A802108430C2233
:10D990000E9951437A4A89188872152008A908718E
:10D9A0007948807A8000794A11580CA88847054642
:10D9B000002D01D0764808900020089001260EE046
:10D9C0007148807A8000714A11580CA888470890E5
:10D9D00005E0132008A90871012600E000BF00BF80
:10D9E000002E16D009A90CA8089A00F087F808A8FC
:10D9F000007912280DD100BF0C210E9848436049D0
:10DA00004018807A012802D00E98FEF7EFFC00BF84
:10DA100000BF00BFEAE430B50446002902D15C48EB
:10DA2000333830BD00BF0878012806DA08780C25A5
:10DA30006843554D2858002802D155483938F0E739
:10DA400000BFFF208870052300220FE00C20504308
:10DA50004B4D40190089A04207D14A700C20504319
:10DA60004019C07A8870002302E0521C002AEDD0D1
:10DA700000BF1846D5E701218140464A12688A4313
:10DA800044490A607047F8B505460E46404FBF1C32
:10DA900000242EE01C20604338494018807EFF2877
:10DAA00026D13078022814D01C2060434018807E94
:10DAB000022188431C216143304A891888761C2141
:10DAC00061438918084610300722314601F074F985
:10DAD0000BE01C20604329494018807E4108490022
